{
  "contractName": "FraudDetection",
  "abi": [
    {
      "anonymous": false,
      "inputs": [
        {
          "indexed": true,
          "internalType": "uint256",
          "name": "transactionId",
          "type": "uint256"
        },
        {
          "indexed": false,
          "internalType": "uint256",
          "name": "fraudScore",
          "type": "uint256"
        }
      ],
      "name": "FraudDetected",
      "type": "event"
    },
    {
      "anonymous": false,
      "inputs": [
        {
          "indexed": true,
          "internalType": "uint256",
          "name": "transactionId",
          "type": "uint256"
        },
        {
          "indexed": false,
          "internalType": "uint256",
          "name": "amount",
          "type": "uint256"
        },
        {
          "indexed": false,
          "internalType": "bool",
          "name": "isFraud",
          "type": "bool"
        }
      ],
      "name": "TransactionLogged",
      "type": "event"
    },
    {
      "inputs": [],
      "name": "fraudThreshold",
      "outputs": [
        {
          "internalType": "uint256",
          "name": "",
          "type": "uint256"
        }
      ],
      "stateMutability": "view",
      "type": "function",
      "constant": true
    },
    {
      "inputs": [
        {
          "internalType": "uint256",
          "name": "",
          "type": "uint256"
        }
      ],
      "name": "transactions",
      "outputs": [
        {
          "internalType": "uint256",
          "name": "id",
          "type": "uint256"
        },
        {
          "internalType": "uint256",
          "name": "amount",
          "type": "uint256"
        },
        {
          "internalType": "uint256",
          "name": "fraudScore",
          "type": "uint256"
        },
        {
          "internalType": "bool",
          "name": "isFraud",
          "type": "bool"
        },
        {
          "internalType": "uint256",
          "name": "timestamp",
          "type": "uint256"
        }
      ],
      "stateMutability": "view",
      "type": "function",
      "constant": true
    },
    {
      "inputs": [
        {
          "internalType": "uint256",
          "name": "_id",
          "type": "uint256"
        },
        {
          "internalType": "uint256",
          "name": "_amount",
          "type": "uint256"
        },
        {
          "internalType": "uint256",
          "name": "_fraudScore",
          "type": "uint256"
        }
      ],
      "name": "logTransaction",
      "outputs": [],
      "stateMutability": "nonpayable",
      "type": "function"
    },
    {
      "inputs": [
        {
          "internalType": "uint256",
          "name": "_id",
          "type": "uint256"
        }
      ],
      "name": "checkTransaction",
      "outputs": [
        {
          "internalType": "bool",
          "name": "",
          "type": "bool"
        }
      ],
      "stateMutability": "view",
      "type": "function",
      "constant": true
    },
    {
      "inputs": [
        {
          "internalType": "uint256",
          "name": "_newThreshold",
          "type": "uint256"
        }
      ],
      "name": "updateThreshold",
      "outputs": [],
      "stateMutability": "nonpayable",
      "type": "function"
    }
  ],
  "bytecode": "0x6080604052604660015534801561001557600080fd5b50610464806100256000396000f3fe608060405234801561001057600080fd5b50600436106100575760003560e01c80635f5b79901461005c5780638ce18a9f1461007a5780639ace38c2146100aa578063c401e23c146100de578063d7d7442f146100fa575b600080fd5b610064610116565b604051610071919061036a565b60405180910390f35b610094600480360381019061008f91906102b9565b61011c565b6040516100a1919061034f565b60405180910390f35b6100c460048036038101906100bf91906102b9565b610148565b6040516100d59594939291906103ae565b60405180910390f35b6100f860048036038101906100f391906102e2565b61018b565b005b610114600480360381019061010f91906102b9565b61029a565b005b60015481565b600080600083815260200190815260200160002060030160009054906101000a900460ff169050919050565b60006020528060005260406000206000915090508060000154908060010154908060020154908060030160009054906101000a900460ff16908060040154905085565b600060015482101590506040518060a0016040528085815260200184815260200183815260200182151581526020014281525060008086815260200190815260200160002060008201518160000155602082015181600101556040820151816002015560608201518160030160006101000a81548160ff02191690831515021790555060808201518160040155905050801561025a57837f447cfa31f47df7fa5c813d99a0e21ff537d19e5efbb9b7c58ff789ea7286a51f83604051610251919061036a565b60405180910390a25b837f34832a31e99b2087c01515c7e64f096a1b2691172e957b85ff012fec599ddfe0848360405161028c929190610385565b60405180910390a250505050565b8060018190555050565b6000813590506102b381610417565b92915050565b6000602082840312156102cb57600080fd5b60006102d9848285016102a4565b91505092915050565b6000806000606084860312156102f757600080fd5b6000610305868287016102a4565b9350506020610316868287016102a4565b9250506040610327868287016102a4565b9150509250925092565b61033a81610401565b82525050565b6103498161040d565b82525050565b60006020820190506103646000830184610331565b92915050565b600060208201905061037f6000830184610340565b92915050565b600060408201905061039a6000830185610340565b6103a76020830184610331565b9392505050565b600060a0820190506103c36000830188610340565b6103d06020830187610340565b6103dd6040830186610340565b6103ea6060830185610331565b6103f76080830184610340565b9695505050505050565b60008115159050919050565b6000819050919050565b6104208161040d565b811461042b57600080fd5b5056fea26469706673582212206cb5e3b3912a6413e6bd3ee2b3053bb57c0e68eda8f7ce17a8c950dae4ee7c4f64736f6c63430008000033",
  "immutableReferences": {},
  "source": "// SPDX-License-Identifier: MIT\r\npragma solidity ^0.8.0;\r\n\r\ncontract FraudDetection {\r\n    \r\n    struct Transaction {\r\n        uint256 id;\r\n        uint256 amount;\r\n        uint256 fraudScore;\r\n        bool isFraud;\r\n        uint256 timestamp;\r\n    }\r\n\r\n    mapping(uint256 => Transaction) public transactions;\r\n    uint256 public fraudThreshold = 70; // Fraud score above 70 is considered fraudulent.\r\n\r\n    event FraudDetected(uint256 indexed transactionId, uint256 fraudScore);\r\n    event TransactionLogged(uint256 indexed transactionId, uint256 amount, bool isFraud);\r\n\r\n    // Function to log a transaction with AI-detected fraud score\r\n    function logTransaction(uint256 _id, uint256 _amount, uint256 _fraudScore) public {\r\n        bool isFraud = _fraudScore >= fraudThreshold;\r\n        \r\n        transactions[_id] = Transaction({\r\n            id: _id,\r\n            amount: _amount,\r\n            fraudScore: _fraudScore,\r\n            isFraud: isFraud,\r\n            timestamp: block.timestamp\r\n        });\r\n\r\n        if (isFraud) {\r\n            emit FraudDetected(_id, _fraudScore);\r\n        }\r\n\r\n        emit TransactionLogged(_id, _amount, isFraud);\r\n    }\r\n\r\n    // Function to check if a transaction is fraudulent\r\n    function checkTransaction(uint256 _id) public view returns (bool) {\r\n        return transactions[_id].isFraud;\r\n    }\r\n\r\n    // Update the fraud detection threshold\r\n    function updateThreshold(uint256 _newThreshold) public {\r\n        fraudThreshold = _newThreshold;\r\n    }\r\n}\r\n",
  "sourcePath": "D:\\fraud_detection_Ecommerce_project\\blockchain\\contracts\\FraudDetection.sol",
  "compiler": {
    "name": "solc",
    "version": "0.8.0+commit.c7dfd78e.Emscripten.clang"
  },
  "schemaVersion": "3.4.16",
  "updatedAt": "2025-03-31T21:53:06.934Z",
  "networkType": "ethereum",
  "devdoc": {
    "kind": "dev",
    "methods": {},
    "version": 1
  },
  "userdoc": {
    "kind": "user",
    "methods": {},
    "version": 1
  }
}